:100000000C948C010C94A9010C94A9010C94A901E5
:100010000C94A9010C94A9010C94A9010C94A901B8
:100020000C94A9010C94A9010C94371E0C940B1F7D
:100030000C941B190C94A9010C94A9010C94A9010E
:100040000C94A9010C94A9010C94A9010C94A90188
:100050000C94A9010C94A2190C94A9010C94A90167
:100060000C94A9010C94A9010C94A9010C94A90168
:100070000C94A9010C94A9010C94A9010C94A90158
:100080000C94A9010C94A9010C94A9010C94A90148
:100090000C94A9010C94A9010C94A9010C94A90138
:1000A0000C94A9010C94A9010C94A90114001A0044
:1000B0000800150017001C0018000C0012001300A7
:1000C00004611600070009000A000B000D710E7490
:1000D0000F7834431D621B61066419682C412A4263
:1000E000050011001000DA5C29005F00600061006B
:1000F0006200560046004A004B004C002B005C009A
:100100005D005E006300570049004D004E00B300E3
:10011000E10059005A005B00010001006500360053
:10012000370038001E021F02200221022202230291
:1001300024022502260227022F023002360237024D
:10014000330231025000510052004F002D023500A1
:1001500035027D00010001000100010001000100E5
:100160003A003B003C003D00AA00A900010001004C
:10017000A700A6003E003F0040004100AC00AB00DD
:10018000010001000100000042004300440045005E
:1001900001000100010001000100A500100347005B
:1001A0006800650072006B0069006E0000002003AB
:1001B00034003000200050006500720063006500CC
:1001C0006E007400200043006C00750062000000A7
:1001D0000403090409023B00020100A0FA0904001B
:1001E0000001030101000921110100012240000763
:1001F0000581030800010904010001030000000952
:10020000211101000122B60007058203200001121E
:1002100001000200000008254060600100010200AA
:100220000105010902A10185020901A100050919C1
:1002300001290815002501950875018102050109AC
:100240003009311581257F95027508810609381519
:1002500081257F950175088106050C0A38021581F4
:10026000257F950175088106C0C005010980A1019F
:10027000850319012AB700150126B70095017510ED
:100280008100C0050C0901A101850419012AA00201
:10029000150126A002950175108100C0050109060F
:1002A000A1018506050719E029E715002501950834
:1002B000750181020507190029EF1500250195F048
:1002C000750181020508190129059505750191023D
:1002D000950175039101C005010906A101050719E2
:1002E000E029E71500250195087501810295017542
:1002F0000881010507190029FF150026FF00950652
:1003000075088100050819012905950575019102F7
:10031000950175039101C00011241FBECFEFDAE0F3
:10032000DEBFCDBF11E0A0E0B1E0E4E9F3E402C03C
:1003300005900D92A438B107D9F722E0A4E8B1E006
:1003400001C01D92AD38B207E1F70E9437110C943D
:10035000B2210C94000081E0089581E008950E948C
:10036000AD01089508950E94B2010895A5E0B0E09E
:10037000ECEBF1E00C943B2149835A8330918701E7
:1003800089819A81311119C0662399F0222389F05D
:100390000E943D08182F682F89819A810E941908B0
:1003A00069817A81812F0E94B90E2596E3E00C9431
:1003B00057210E942B08182FF3CF0E943D08698116
:1003C0007A81F1CFFC01262F4081518162817381B6
:1003D00084810E94B601089581E00895CF93DF9350
:1003E000EC0160E00E94E201BE010E94B301DF91D6
:1003F000CF9108950E94F50F08950E94F90F089576
:1004000008950E9468060E9400022FEF84E39CE09A
:10041000215080409040E1F700C0000008950E9404
:1004200001020E94C61908950E9401020E94D71974
:1004300008950F931F93CF93DF938C0161E00E9487
:10044000E201EC01B8010E94AF01811106C080E019
:10045000DF91CF911F910F910895B801CE010E94B5
:1004600095148823A1F3B801CE010E944D1788236B
:1004700071F3B801CE010E948215882341F3B801BF
:10048000CE010E94BF16882311F3F80182818823D0
:1004900061F0CB35FDE5DF0701F158F4C115ECE55E
:1004A000DE0791F0CF3DDC4591F0C8010E94AB0121
:1004B000CFCFCD358DE5D80769F090F0C83ADD454E
:1004C000A1F70E941402C3CF0E940F02C0CF0E9466
:1004D000030DF7CF0E943D0CE8CF0E94470CE5CFFB
:1004E0000E944B0CE2CF0E94F81880E00E94CA14D0
:1004F0000E94950208950E94C1130E9499020E94D1
:10050000FD18089508950E948202089581E00895DB
:100510000E94860208950895CF93C82F0E948302F7
:100520008C2F0E948802CF91089580E00E948C0257
:1005300008950E94A9170E948C0208950E94A9178D
:1005400090918601981721F0809386010E948C0279
:100550000895ABE0B0E0EFEAF2E00C943C214F8369
:10056000588769877A878B8761110E94880B1E8262
:100570001D8285E0FE013796DE01119601900D92F5
:100580008A95E1F78C819D81892B61F449815A819B
:100590006B817C818D819E810E94B10A2B96E2E065
:1005A0000C94582189819A8189238F3F79F3CE0158
:1005B00001960E94EC018111E9CFF0CFFC0180810E
:1005C00091810E9477080895CF93C82F8823C9F09E
:1005D0008238C9F40E94A91781FD13C089E30E94E3
:1005E000400B0E94A90B2FEF81EE94E02150804038
:1005F0009040E1F700C0000089E30E94480B0E9490
:10060000A90BCF9108958338A1F40E94A91780FD0A
:10061000F8CF83E50E94400B0E94A90B2FEF81EEDB
:1006200094E0215080409040E1F700C0000083E555
:10063000E4CF8438A1F40E94A91782FDE2CF87E4B9
:100640000E94400B0E94A90B2FEF81EE94E02150F5
:1006500080409040E1F700C0000087E4CECF8CEFEF
:100660008C0F813A90F46C2F8091000190910101E0
:100670000E941E18882329F08C2F0E94480B0E948C
:10068000A90B8C2F0E94400BBACF80E28C0F8830D0
:1006900048F4C77081E001C0880FCA95EAF70E944C
:1006A0006B0BADCFEBE5EC0FE33040F4F0E0EB5B30
:1006B000FE4F808190E00E94DE17A3CFE8E5EC0FAB
:1006C000E73150F4F0E0EE0FFF1FE95EFE4F80814E
:1006D00091810E94F41795CFCD3E08F492CF8C2FD4
:1006E0000E94BB110E948E128CCF882309F455C042
:1006F000823879F40E94A91781FF4FC089E30E94D4
:10070000400B0E94A90B89E30E94480B0E94A90B91
:100710000895833859F40E94A91780FF3EC083E5ED
:100720000E94400B0E94A90B83E5EECF843859F458
:100730000E94A91782FF31C087E40E94400B0E94EB
:10074000A90B87E4E1CF9CEF980F913AE8F290E291
:10075000980F983050F4877091E001C0990F8A95F6
:10076000EAF7892F0E94710BD1CF9BE5980F933048
:1007700028F490E080E00E94DE17089598E5980F35
:10078000973128F490E080E00E94F41708958D3EA0
:1007900020F00E9415120E948E1208951F93CF938D
:1007A000DF93182FEB010E94E402209739F4812F88
:1007B0000E947503DF91CF911F9108958FE99FE00B
:1007C0000197F1F700C000002197EFCF70E060E0E3
:1007D000893311F460E570E00E94CE030895882308
:1007E00021F00E946B0B0E94A90B0895882321F031
:1007F0000E94710B0E94A90B0895B0E0A0E0E3E015
:10080000F4E00C9435216C01D62FC72FFC01128126
:10081000F580F2949FE0F9220E94610BE82E882374
:10082000B9F0E12E1123A1F08C2F807F803421F0CC
:1008300080E28D0F8830D0F08091700282FF16C068
:1008400082E00E940C0C0E94610B91E0E82EE926E8
:10085000BC2EB2948FE0B822FBE0FB1508F468C010
:10086000EB2DF0E0EC54FE4D0C940C21E12CF0CF7C
:100870000C2F0F70C07F11F00295007F112399F0AB
:10088000002359F080E28D0F883010F0D11107C09D
:10089000802F0E946B0B0E94A90B8D2F41C0802FCF
:1008A0000E947B0BF8CF8D2F0E947503002309F463
:1008B0003FC080E28D0F883010F0D11104C0802F2E
:1008C0000E94710B03C0802F0E94810B0E94A90B14
:1008D0002FC00C2F0F70C07FC03211F00295007F27
:1008E000DD2381F0D13009F463C0112309F46DC018
:1008F000FF2009F463C0F601858180FFCECF8F70A1
:1009000085835CC08091700282FD33C0112359F051
:10091000002329F0802F0E946B0B0E94A90B80E01E
:100920000E94E40205C080E00E9475030111C7CF58
:10093000EB2DE850FF0B349720F40E94A9170E947A
:100940008C02EE2089F00E945D0B80FD0DC0F60147
:1009500012820E94570B0E942107C6010E9428069E
:100960000E94570B0E944307CDB7DEB7E9E00C9415
:100970005121112389F0F11006C00E948B0B802BAE
:100980000E94EF03D5CF21E0F212F7CF0E948B0B2C
:10099000802B0E94920BCCCFF11006C00E949F0BBF
:1009A000802F0E94F603C4CF31E0F31609F2F6CF90
:1009B000112331F085E08F1508F4BACF802FE0CFF6
:1009C00094E09F1508F4B4CFEBCFFF2049F3D9335F
:1009D00049F4FFEF27EE33E0F15020403040E1F7DB
:1009E00000C000008D2F0E947503A2CF8C2F86952A
:1009F0008695837069F0813009F09ACF8D2F9C2FF6
:100A00009370111102C090E080E00E94F41790CF23
:100A10008D2F9C2F9370111102C090E080E00E94F6
:100A2000DE1786CF8D2F112329F00E94BB110E9463
:100A30008E127ECF0E941512FACF8C2F837009F090
:100A400041C0111175CF4D2F429546954770440F07
:100A5000440F0D2F0F7010E030E020E0042E04C092
:100A6000000F111F221F331F0A94D2F760E070E0BD
:100A7000CB01D4FF0FC06FE070E080E090E004C0D5
:100A8000660F771F881F991F4A95D2F7609570955A
:100A900080959095C695C695C370602B712B822B5F
:100AA000932BC23049F058F4C13019F00E94CC06A3
:100AB0003FCF0E94B9063CCF0E94DF0639CF0E948B
:100AC000B60636CF8695112311F08C2F81708823BE
:100AD00009F42ECF4D2F429546954770440F440F91
:100AE0000D2F0F7010E030E020E0042E04C0000F46
:100AF000111F221F331F0A94D2F760E070E0CB0170
:100B0000D4FF0FC06FE070E080E090E004C0660F9B
:100B1000771F881F991F4A95D2F760957095809529
:100B20009095C695C695C370602B712B822B932B25
:100B3000C23049F058F4C13019F00E949C07F8CE39
:100B40000E948907F5CE0E94AF07F2CE0E94F806F8
:100B5000EFCECF70112329F08C2F0E9421078D2F0B
:100B60000FCF8D2F0E94F6038C2F0E944307E0CEFB
:100B7000D23F51F160F4D03FB9F0D13F81F0112361
:100B800009F449C0F11089CE8C2F8F7121C0D33F59
:100B900011F1D43FA1F78091700282FD26C08C2F05
:100BA0008F71112311F314C0112349F084E08F15C4
:100BB00008F4BECE8C2F8F710E946707B9CE95E0E6
:100BC0009F1508F4B5CEF6CF8C2F8F711111CDCFB4
:100BD0000E942107ADCE112329F08C2F8F710E9426
:100BE0000B07A6CE0E940507A3CE112349F0CF71B3
:100BF0008C2F0E94210763E08C2F0E94EE0B98CE71
:100C000081E00E940C0CE1E0EF1508F091CE82E04B
:100C10000E940C0C8DCEF110DACE8C2F8F71A5CFE7
:100C20000F931F93CF93DF93EC01688179818A81C1
:100C30000E9482088C010E94C2070E94B506B8017A
:100C4000CE010E94FD03DF91CF911F910F91089576
:100C5000CF93DF93EC018B819C81892B29F08881D4
:100C6000998189238F3F51F4DF91CF910895CE016F
:100C70000E941006CE010E94EE01F6CFCE010E9426
:100C800019028111F4CF0E94610B882369F38A81D4
:100C9000882351F38091700282FFE6CF82E00E94A8
:100CA0000C0CE2CF90E080E00E94DE1790E080E044
:100CB0000E94F4170E94880B0E94A90B0E949F13A8
:100CC0000E948E1208950E94500B0E9452060895B1
:100CD0000E94780B0E946306089592959F7096304B
:100CE00091F058F4925F9F70923058F4803F19F061
:100CF00030F4883E30F481E008959A5FF4CF843F69
:100D0000D1F380E00895883EB0F3813FD1F7F3CF6F
:100D1000FC01808191810E9477080E946D060895F0
:100D2000A5E0B0E0E6E9F6E00C943C212596E2E08F
:100D30000C945821A6E0B0E0E0EAF6E00C943C21E7
:100D40002696E2E00C94582108950E94A406089586
:100D50000E94A5066093A0017093A1018093A20157
:100D60009093A3010E945206089508950E94A80638
:100D700008950F931F930091A0011091A10120915C
:100D8000A2013091A301602B712B822B932B0E9427
:100D9000A8061F910F9108950F931F930091A00132
:100DA0001091A1012091A2013091A3016023712330
:100DB000822393230E94A8061F910F9108950F93F9
:100DC0001F930091A0011091A1012091A2013091E7
:100DD000A30160277127822793270E94A8061F91ED
:100DE0000F9108950E94A40608950E94F2060895A6
:100DF0000E94F50660939C0170939D0180939E0173
:100E000090939F010E945206089560E070E0CB012C
:100E10000E94F80608950F931F9341E050E060E0B0
:100E200070E08A019B0104C0000F111F221F331FB5
:100E30008A95D2F7C901B8010E94F8061F910F9157
:100E400008950F931F9341E050E060E070E004C00C
:100E5000440F551F661F771F8A95D2F780919C011A
:100E600090919D01A0919E01B0919F018A019B01EB
:100E7000082B192B2A2B3B2BC901B8010E94F8061D
:100E80001F910F9108950F931F9341E050E060E090
:100E900070E004C0440F551F661F771F8A95D2F774
:100EA000CB01BA01609570958095909500919C0159
:100EB00010919D0120919E0130919F01602371232B
:100EC000822393230E94F8061F910F9108950F9398
:100ED0001F9341E050E060E070E004C0440F551FF4
:100EE000661F771F8A95D2F780919C0190919D0192
:100EF000A0919E01B0919F018A019B0108271927AB
:100F00002A273B27C901B8010E94F8061F910F91BB
:100F100008950F931F9300919C0110919D012091C2
:100F20009E0130919F01602B712B822B932B0E948D
:100F3000F8061F910F9108950F931F9300919C0144
:100F400010919D0120919E0130919F01602371239A
:100F5000822393230E94F8061F910F9108950F9307
:100F60001F9300919C0110919D0120919E01309151
:100F70009F0160277127822793270E94F8061F91FF
:100F80000F9108950895262F277091E001C0990FC1
:100F90002A95EAF723E0769567952A95E1F725E00B
:100FA000269FF001279FF00D1124E40FF51F50E05C
:100FB00040E0682F70E08191DF0111979B01042EC2
:100FC00002C0369527950A94E2F7217021952827CB
:100FD000292328272C934F5F5F4F4530510559F740
:100FE0000895A82FA77023E0969587952A95E1F795
:100FF00025E0289FF001299FF00D1124E60FF71F2F
:1010000050E040E080E0219130E00A2E02C03695A9
:1010100027950A94E2F721703327042E01C0220F8E
:101020000A94EAF7822B4F5F5F4F4530510559F71D
:101030000895262F953070F4863060F4682F70E0A4
:1010400086E0989F600D711D112448E851E0822FC1
:101050000E94C3070895292F953068F4863058F40C
:1010600090E068E871E036E0239F800D911D112427
:101070000E94F107089580E00895B0E0A0E0E3E465
:10108000F8E00C9435218C01C0909C01D0909D011A
:10109000E0909E01F0909F018091A0019091A101AC
:1010A000A091A201B091A301C82AD92AEA2AFB2A59
:1010B000CFE1D0E0BC2ED701C6010C2E04C0B695FE
:1010C000A795979587950A94D2F780FD09C0219737
:1010D00088F7B12C8B2DCDB7DEB7E9E00C94512108
:1010E000B8018C2F0E94D40E019789F3F3CFCF93D0
:1010F000DF93EC010E943D08BE010E94D40EDF91F7
:10110000CF9108951F93CF93DF93EB0190918701C7
:10111000992339F0CB010E947708DF91CF911F917D
:101120000895882369F0CB010E943D08182F682F8D
:10113000CE010E941908BE01812F0E94D40EEDCF6E
:10114000CB010E942B08182FF6CF1F93CF93DF936C
:10115000C091A40116E08091A5018C1304C0DF9119
:10116000CF911F910895D0E01C9FF0011D9FF00DBD
:101170001124EA55FE4F408151816281738184813F
:1011800095810E949A062196C770E5CF4091D601BD
:101190005091D7016091D8017091D9018091DA0105
:1011A0009091DB010E949A0608951F93CF93DF93DD
:1011B0008091DB01807F09F049C08091D8018823AC
:1011C00009F444C08091A401C091A5016091D601A9
:1011D0007091D701A091D901B091DA01D62FD72310
:1011E00016E0C81799F190E0109711F0DF3F19F45D
:1011F00001968770F6CF189F9001199F300D11242A
:10120000F901EA55FE4F41814713F2CF4081461361
:10121000EFCF42814111ECCF438154814A1B5B0BDC
:10122000483C510528F78091DB018F7080618093E5
:10123000DB01F901E555FE4F80818F70806180836D
:1012400086ED91E00E9428060E94A508DF91CF91CB
:101250001F910895A1E1B0E0E0E3F9E00C9434219E
:101260008C0185E0F801DE011D9601900D928A95B2
:10127000E1F7F801E28086EDC82E81E0D82E60917A
:10128000D9017091DA016115710509F44EC190918F
:10129000D6012091D701892F82238F3F09F445C1C0
:1012A00040815181A380B480F090D801F501E61B04
:1012B000F70BFF2009F4EAC08091DB01382F307F63
:1012C000E83CF10508F0A3C031116DC0FE2C2513D8
:1012D00016C0941314C0E11012C08F708061809307
:1012E000DB010E94C608C6010E9428068091DB012E
:1012F000F80185838F2D6196EAE00C945021A114AA
:10130000B10429F0842F85238F3F09F027C180E0A5
:10131000F82FF170DF2E80FF3CC08091A401209156
:10132000A50136E0821315C04D875E878D859E85A9
:101330000E947708292F22952F702230F0F0243058
:1013400018F59F70F1F0F8019581907FD1F4D12CC0
:101350001EC090E0389FF001399FF00D1124EA552E
:10136000FE4F6181651306C06081641303C0628112
:10137000E6120FC001968770D5CF9F7011F08823B9
:1013800031F3805E883018F3C8010E942806FD2CD6
:10139000B1CFEE2009F4AECF8091DB018160809364
:1013A000DB01F12CA7CF251306C0941304C0F8016C
:1013B000EE2009F487C0C8010E948806882319F12D
:1013C000EE2009F18091DB01803270F02091D6018E
:1013D0003091D70138872F831986BB86AA868C87E0
:1013E000CE0107960E94280686E0F801A6EDB1E03E
:1013F00001900D928A95E1F70E94D5080E94C608D7
:10140000FF24F39477CFC8010E942806F9CF311149
:1014100013C07A2DB98AA88A6E2D89890E949006F8
:1014200086ED91E00E94280686E0F60111928A95E9
:10143000E9F70E94C608B5CF25130FC094130DC05D
:10144000E1100BC0F8018583C8010E94280686E0E0
:10145000F60111928A95E9F74DCFC8010E948806DE
:10146000882389F2EE2079F28091DB01803208F442
:10147000BBCF2091D6013091D7013A8329831B82BB
:10148000BD82AC828E83CE010196ACCFE83CF105E3
:1014900008F03EC0FE2CEE2009F4B5CF25132AC07B
:1014A000941328C08091DB0180FD1BC0982F907F92
:1014B000C1F0F8018583903F31F0982F907F905FC5
:1014C0008F70892B8583C8010E94280686E0F80169
:1014D000A6EDB1E001900D928A95E1F70E94C60851
:1014E00009CF86E0F801A6EDB1E001900D928A9552
:1014F000E1F700CFC8010E948806811175CF809165
:10150000DB0181608093DB01C8010E942806F2CED6
:101510007A2DB98AA88A6E2D89890E94900686E064
:10152000F60111928A95E9F7D9CFEE2009F46BCF35
:10153000C8010E948806F82E882309F464CF86E04B
:10154000F801A6EDB1E001900D928A95E1F786EDE4
:1015500091E00E94DE020E94D508C0CF81E08E2576
:10156000D7CEACE0B0E0E7EBFAE00C943B214F8340
:10157000588769877A878B879C87CE0107960E9458
:101580002A09882369F08A859B85892B39F04F8148
:101590005885842F85238F3F09F06BC016E05FC00C
:1015A00086E0FE013796DE01119601900D928A9534
:1015B000E1F78A859B85892B89F388859F8189231B
:1015C0008F3F61F32091A50130E0C901019687703A
:1015D00099274091A4014817190671F40E946806E2
:1015E0001092A5011092A40186E0E6EDF1E0DF0182
:1015F0001D928A95E9F7D2CF96E0929FD001939FF2
:10160000B00D1124AA55BE4FFE01319601900D92E6
:101610009A95E1F78093A5010E94A508BFCF819F0D
:10162000C00111248A559E4F0E942A098823E9F09F
:10163000E091A4011E9FF0011124EA55FE4F408164
:10164000518162817381848195810E949A06809183
:10165000A40190E00196877099278093A40180915E
:10166000A4019091A5018913DACF2C96E3E00C94A4
:10167000572169857A858B859C850E949A068ECF35
:10168000682F80910001909101010E949E18089599
:10169000682F80910001909101010E94AC1808957B
:1016A00080910001909101010E94BA1808958091E3
:1016B000FC0185958595859508958091FC0187703D
:1016C00008959091FC01977081E009F480E00895FD
:1016D00080911F02089590911F02892B80931F0211
:1016E0000895809590911F02982390931F0208956A
:1016F00010921F02089590911E02892B80931E0262
:101700000895809590911E02982390931E0208954B
:1017100010921E0208958091FD01089508950E947F
:101720008E0B08959091700292FF08C09091FD0178
:10173000981721F08093FD010E948F0B08958091EE
:10174000FD01882329F01092FD0180E00E948F0B9B
:101750000895CF93DF93E0910001F0910101809112
:101760001F028083E0910001F0910101808190913E
:101770001E02892B80839091FD01992381F0E091D5
:101780000001F09101018081892B8083809100010B
:10179000909101010E940A1881110E949F0BC09133
:1017A0000001D091010140E250E06CED71E0CE010A
:1017B0000E946321892B59F080E2FE01ACEDB1E07B
:1017C00001900D928A95E1F7CE010E94B617DF9144
:1017D000CF91089508950E94EA0B089590917002A8
:1017E00092FF11C098E0899F90011124622B6093B1
:1017F000FC010E9421078091FC01859585958595C6
:101800000E94EB0B08950E94210708951092FC019D
:1018100080E00E94EB0B08959091FC018095892354
:101820008093FC01282F277091F4282F082E000C9C
:10183000330B9217130659F09091700292FF07C074
:101840008595859585950E9443070E94060C08950D
:101850009091700292FB222720F9281769F080FBF3
:1018600092F99093700280916F02909170020E94A1
:10187000790C82E00E940C0C08958091700282FB2A
:10188000882780F991E089270E94280C089581E03B
:101890000E94280C089580E00E94280C08956FEFA4
:1018A0007FEF90E080E00E949C21089590E080E02E
:1018B0000E94782121E0883E9E4F09F020E0822F8F
:1018C000089582E090E00E947021089583E090E006
:1018D0000E9470210895CF9384E090E00E947021CF
:1018E000C82F82E290E00E947021982F8C2FCF9118
:1018F0000895CF93C92F682F84E090E00E947E2145
:101900006C2F82E290E00E947E21CF910895AB017E
:10191000BC018FE090E00E9490210895AB01BC01D2
:1019200083E190E00E949021089560E070E0CB0197
:101930000E948E0C089560E070E0CB010E94870C3D
:101940000E94950C089568EE7EEF90E080E00E9482
:101950009C2160E082E090E00E947E2160E083E0D4
:1019600090E00E947E211092A0011092A10110929D
:10197000A2011092A30160E084E090E00E947E2129
:1019800064E082E290E00E947E2160E085E090E0E9
:101990000E947E2160E086E090E00E947E216FEF51
:1019A00087E090E00E947E2140E050E0BA0188E0AC
:1019B00090E00E94902160E08DE090E00E947E2106
:1019C00040E050E0BA0188E190E00E94902160E0A0
:1019D00087E190E00E947E2140E050E0BA018CE176
:1019E00090E00E94902170E060E080E290E00E9430
:1019F0009C2140E050E0BA0188E190E00E949021F3
:101A00000E949B0C08950E94A30C0895682F8EE0FD
:101A100090E00E947E2108950E9487196093290218
:101A200070932A0280932B0290932C0260932502DC
:101A300070932602809327029093280208950895B8
:101A400008950E94200D089508950E94240D089580
:101A500083EB9FE00E949F170E941F0D0E94210DA3
:101A6000089581E008950E94310D08950895089524
:101A70000E94360D0E94370D08950E94CF0F0E94DC
:101A80008B020E94711508950E9472190E94A11084
:101A90000E943D0D0E94C1130E94250D0895AAE0E9
:101AA000B0E0E5E5FDE00C9432210E94B710982EDD
:101AB00081110E940C0D80E2A82E82E0B82E10E069
:101AC00000E0802E802F0E94FC0FE82EF501C190CF
:101AD0005F01C816B1F180912D0281FD0E940210B4
:101AE000D12CFF24F394CE248C2D8F2129F10E9438
:101AF000330D882399F0DE828F82EF2081E009F494
:101B000080E088870E947B198160782F9A87898777
:101B10004E815F8168858A850E94A902F801E05E96
:101B2000FD4F8081F826F08281E0911001C080E0B5
:101B30002A96ECE00C944E21D394FF0CF6E0DF12D1
:101B4000D3CF0F5F1F4F0530110509F0BACF8FEFCC
:101B500089838A831B820E947B198160782F9D83F1
:101B60008C8349815A816B818D810E94A902DCCFCF
:101B70000E944F0D0E9470150E94AA120E949E02A0
:101B80000895CF93DF930E94D90EEC01811521E5D2
:101B9000920708F042C0811530E5930708F09DC018
:101BA000883E910530F5803E910508F092C0883A54
:101BB000910588F4853A910508F084C0813091053B
:101BC00009F487C0009709F484C0049708F081C025
:101BD000D0E0C0E07EC08F3B9105D0F7C85AD0E07E
:101BE000CC0FDD1FC85BDE4F0990D881C02DD464B7
:101BF00070C08115904250F4C11581E0D80708F0FB
:101C000068C0CD3ED10520F3D06563C0C11590E416
:101C1000D907F0F2DF70D06A5CC0811525E5920724
:101C200000F5811534E5930708F08BC0811543E575
:101C3000940708F073C0C11582E5D80708F469C09D
:101C4000CE018370992721E030E002C0220F331FBC
:101C50008A95E2F7C695C69580E2C89FE0011124F7
:101C600054C0C11599E5D907A8F4C11528E5D207D4
:101C700008F06CC0C11536E5D30708F0A9CF8C2F4A
:101C80000E94700FC82FD0E0DC2FCC27CC27DF714B
:101C9000D0621FC0C1154AE5D40708F45CC0CE016C
:101CA00090568115904208F093CF8D2F8F710E942E
:101CB000700F90E0982F882788279F719C012C2B0C
:101CC000E901E6CFC55AD0E0CA58DE4FC881D0E05E
:101CD000D064CE01DF91CF910895E4E09695879589
:101CE000EA95E1F783702C2F26952695237040E224
:101CF000249F90011124382B8C2F8370C1E0D0E0F9
:101D000002C0CC0FDD1F8A95E2F7C22BD32BDC6813
:101D1000E0CFDC2FCC27C16FD06ADBCF837099274F
:101D200021E030E002C0220F331F8A95E2F7C6950A
:101D3000C69590E2C99FE0011124C22BD32BDA682B
:101D4000C8CFD82FCC27C46FD06AC3CFDC2FCC2705
:101D5000C06FD06ABECF8C2F8F700E94700F34E09E
:101D6000D695C7953A95E1F7CF709C2FEC01D069D5
:101D7000B0CF972F7530A8F4663098F470E026E065
:101D8000929F600D711D1124FB019EE1899FE00D62
:101D9000F11D1124EE0FFF1FE455FF4F8591949123
:101DA000089580E090E008950E94B90E0E94C10D50
:101DB000089582389105B1F1B0F48133910509F4A9
:101DC00075C048F48932910509F469C08A329105D9
:101DD00009F473C008958533910509F459C0893316
:101DE000910501F10895833E9105A9F138F4803EF3
:101DF0009105F9F0823E910549F10895863E9105DD
:101E0000A9F1873E9105C9F1843E910519F520910C
:101E1000700221FF1FC080916F0284FD14C087EE05
:101E200090E0089520916F022370A1F080EE90E081
:101E3000089520916F0220FD47C03091700230FF5D
:101E400009C024FF44C090E080E004C020916F02EC
:101E500022FDF7CF089520916F0222FD3BC0309103
:101E6000700230FDE3CF24FFF5CFEDCF20916F025C
:101E700023FFF0CF24FDE7CFD2CF20916F0223FDC7
:101E80002CC03091700231FFEECF84EE90E00895C7
:101E900020916F0225FFDECF89E290E00895209126
:101EA0006F0225FFD7CF85E390E0089520916F0260
:101EB00026FFD0CF8AE290E0089520916F0226FF9E
:101EC000C9CF81E390E0089589E390E0089583EE1F
:101ED00090E0089582EE90E0089586EE90E00895F7
:101EE00090916F0292FF06C0282F28712830F9F4D4
:101EF000877F846093FF06C0282F28712831F1F472
:101F0000877E84612091700220FF06C0382F3871CF
:101F10003830D9F4877F816021FF06C0282F2871CF
:101F20002831D1F4877E816194FD877E0895282F22
:101F300024712430F9F68B7F8860DCCF282F247140
:101F4000243101F78B7E8861DDCF382F317131303C
:101F500019F78E7F8860E0CF282F2171213121F77A
:101F60008E7E8861E1CF80E008950E944F0C089535
:101F70000E94B7108FE39CE90197F1F700C00000C1
:101F80000E94B71080E00E94FC0F80FF04C00E94F6
:101F9000B50F0E94C61908950E94B80F08950E94B7
:101FA000560C811102C00E94030D0E94610C8093A7
:101FB0002D020E946B0C9093700280936F020E941E
:101FC000CC0F0E94660C682F70E090E080E00E94C9
:101FD000B60660919C0170919D0180919E01909147
:101FE0009F010E94F506089508950E94F40F089538
:101FF00008950E94F80F0895E82FF0E0EA58FD4F89
:1020000080810895089580EA8A95F1F7089500C0C7
:1020100008950E9403100895F894E82FE295EF7058
:10202000F0E031A1282F2F7081E090E001C0880FEF
:102030002A95EAF7982F9095932391A392A1892B43
:1020400082A3789408950F931F93CF93DF93CFE7E4
:10205000D1E089918F3F11F00E940C1081E0C438CB
:10206000D807B9F7C9E7D1E00FE711E089918F3FB1
:1020700011F00E940C100C171D07C1F7DF91CF91D2
:102080001F910F910895B0E0A0E0E9E4F0E10C9415
:102090003621EC01D62E062F10E0C80181589E4F44
:1020A0007C01FC0180818F3F09F444C0F894E82F43
:1020B000E295EF70F0E091A18F7021E030E001C077
:1020C000220F8A95EAF7892F822B81A382A120957E
:1020D000282322A378940E940710E9E7F1E031E079
:1020E000C12C21912F3F59F1A22FA295AF70B0E0E2
:1020F00090968C9190E02F7002C0959587952A95C7
:10210000E2F780FD1CC0832FC82A330F81E0EF3730
:10211000F80739F7F70180818F3F11F00E940C100A
:1021200061E0C11001C060E08D2D0E940910C00F58
:10213000D11FC882CDB7DEB7E8E00C94522180E011
:10214000E3CF0E94231085E0E6E7F2E0DF01982F5D
:102150001D929A95E9F7E1E7F2E0DF011D928A9579
:10216000E9F785E00E94F3100E94FA010895A5E0C6
:10217000B0E0EDEBF0E10C9439218E010F5F1F4FC1
:1021800085E0F80111928A95E9F7F12C6F2DC801CD
:102190000E944310F394F5E0FF12F8CF45E050E0C1
:1021A000B80181E792E00E946321FF24F394009735
:1021B00009F4F12C892B41F085E0F801A1E7B2E0A8
:1021C00001900D928A95E1F72F2D45E066E772E0C8
:1021D00081E792E00E94F4100E94FD018F2D259668
:1021E000E5E00C9455210895FF920F931F93CF9330
:1021F000DF93F82E092F162FD72FC42F222349F053
:1022000081E0809330020E947B1990932F0280938B
:102210002E02809130028823A1F080912E029091AD
:102220002F020E949319059760F0EF2DF02FA12F38
:10223000BD2FCE0FDF2FD11DEC17FD0739F4109203
:102240003002CDB7DEB7E5E00C94552181918D9336
:10225000F3CF0E948D1B0E94440D0E949A1B08958B
:102260000E949F1B0E94B80D0E94B91B08950E94F6
:1022700014190E94731B0E94280D0E9429110E94AC
:1022800030110E94380DFBCF8091370280FF0DC0C6
:102290006091070170E0660F771F6038710570F577
:1022A0006115710569F1862F089581FF07C060915E
:1022B000070184E0689FB0011124EFCF609107010E
:1022C00082FD0AC0809136028823A9F02091060180
:1022D00060910701821710F088E0ECCF869FC00163
:1022E000112433E0880F991F3A95E1F7622F70E0CF
:1022F0000E94D620D2CF68E070E0D5CF8FE7089556
:1023000081E008958091370280FF0CC06091030145
:1023100070E075956795759567956115710549F13B
:10232000862F089581FF06C06091030170E07595C6
:102330006795F3CF6091030182FD0BC09091350248
:102340009923A1F06091020180910301961738F062
:10235000682F70E06038710500F38FE70895899F5A
:10236000C001112470E00E94D620F4CF61E070E03B
:10237000D7CF81E008958D3E31F40E9444118195BC
:1023800080933B0208958E3E19F40E944411F8CFC9
:102390008F3E31F40E944411819580933A02089552
:1023A000803F19F40E944411F8CF893F29F40E941C
:1023B000821180933C0208958A3F21F40E94821189
:1023C0008195F7CF8B3F31F40E94821181958093E4
:1023D0003D0208958C3F19F40E948211F8CF9FE0CE
:1023E000980F983070F4815F990B21E030E001C0C4
:1023F000220F8A95EAF780913902822B8093390265
:1024000008958D3F31F480913702816080933702C7
:1024100008958E3F21F4809137028260F7CF8F3F7D
:10242000B9F7809137028460F1CF40913A028D3E36
:1024300059F480913B0287FF0DC010923B0241117D
:102440000BC01092360208C08E3E81F480913B0290
:1024500018169CF3442381F080913C0290913D0238
:10246000892B09F05AC01092350208958F3E49F425
:1024700047FFF0CF10923A0280913B028111ECCFDE
:10248000E0CF803F19F41416ACF3E4CF90913C02F6
:10249000893F29F41916F4F610923C02DBCF8A3FEB
:1024A00019F497FFD7CFF8CF90913D028B3F29F4D5
:1024B00097FFD0CF10923D02CDCF8C3F19F4191663
:1024C000CCF3C8CF9FE0980F983090F4815F990BC0
:1024D00021E030E0B90102C0660F771F8A95E2F76C
:1024E000CB01809590913902892380933902B2CF34
:1024F0008D3F31F4809137028E7F80933702AACFCF
:102500008E3F21F4809137028D7FF7CF8F3F09F006
:10251000A1CF809137028B7FF0CF08950E947B1965
:102520009C0190913A0280913B02982B21F03093CC
:1025300034022093330290913C0280913D02982B0B
:1025400021F0309332022093310288E392E00E941E
:10255000D0170895A6E0B0E0E0EBF2E10C943B2147
:1025600086E0E8E3F2E0DE01119601900D928A9593
:10257000E1F710923A0210923B0210923C02109244
:102580003D028B819C81892B81F080913302909157
:1025900034020E949319AC0190913602992391F173
:1025A0008091080184171506D0F18D819E81892BB9
:1025B00091F080913102909132020E949319AC0106
:1025C00090913502992309F46BC08091040184171E
:1025D000150608F473C0BE016F5F7F4F88E392E079
:1025E0000E94CC1881110E948E1286E0FE01319665
:1025F000A8E3B2E001900D928A95E1F72696E3E018
:102600000C945721209109018AE0289F9001112400
:102610002417350750F69F5F9093360202C09F3F04
:10262000D1F71B81112359F00E9444119FEF11161D
:102630000CF491E0899F802D112480933A021C8133
:10264000112359F00E9444119FEF11160CF491E0F0
:10265000899F802D112480933B0230913A023323CD
:1026600009F4A3CF20913B02222309F49ECF45EB2E
:102670003403C0011124992359F090933A0245EB99
:10268000240390011124332339F030933B028DCF82
:1026900081E080933A02F3CF81E080933B0285CFC3
:1026A000209105018AE0289F900111242417350705
:1026B00008F091CF9F5F9093350202C09F3FD1F702
:1026C0001D81112359F00E9482119FEF11160CF405
:1026D00091E0899F802D112480933C021E8111235B
:1026E00059F00E9482119FEF11160CF491E0899F1E
:1026F000802D112480933D0230913C02332309F454
:102700006ACF20913D02222309F465CF45EB3403C3
:10271000C0011124992359F090933C0245EB240306
:1027200090011124332339F030933D0254CF81E0DE
:1027300080933C02F3CF81E080933D024CCF86E052
:10274000E8E3F2E0DF011D928A95E9F71092360284
:102750001092350210923702089586E090E00E94B0
:1027600070210895682F86E090E00E947E210895F0
:10277000EBE7F2E080818470896180830E94B2136C
:1027800008950E94560C811104C00E94030D0E94FE
:10279000B8130E94AD1380937B02803220F08770C3
:1027A000886180937B0290917B02892F817090FFDA
:1027B00004C0892F8695869586950E94CA1408952F
:1027C00080917B02982F969596959695933040F43C
:1027D0009F5F990F990F990F8770892B80937B02C8
:1027E00080917B02816080937B020E94B213809172
:1027F0007B028695869586950E94CA1408958091DD
:102800007B02982F987F79F0885080937B02887F95
:1028100091E009F490E080917B0290FB80F9809335
:102820007B020E94B21380917B02869586958695E5
:102830000E94CA14089580917B0280FD13C08160BC
:1028400080937B02813019F489E080937B02809130
:102850007B020E94B21380917B02869586958695B5
:102860000E94CA14089580917B0280FF08C08E7F69
:1028700080937B020E94B21380E00E94CA140895E4
:1028800080917B0280FF03C00E94331408950E9450
:102890001B14089590917B02892F869586958695C5
:1028A0008F5F8F7197708430E0F4880F880F880FE6
:1028B000892B80937B0280917B02887F91E009F4D1
:1028C00090E080917B0290FB80F980937B020E94D4
:1028D000B21380917B028695869586950E94CA14D4
:1028E000089590937B02E7CF843008F083E09091C5
:1028F0007B029770282F220F220F220F922B90938A
:102900007B02987F21E009F420E090917B0220FB7C
:1029100090F990937B020E94CA1408950E94741447
:1029200080917B020E94B21308959C01FB01828179
:10293000882349F12E3BFCE53F07C9F040F42C3BCE
:10294000ECE53E0769F02D3B3C4579F00895203CCD
:102950009CE5390791F070F0213C3C4589F00895E1
:1029600083E00E948E1480E0089580E0FACF0E94F8
:10297000FF13F9CF0E94E013F6CF0E944014F3CF6B
:102980000E944A14F0CF81E00895259A2D98089569
:102990002D9808958F929F92AF92BF92EF92FF92DF
:1029A0000F931F93CF93DF93C82F8430C0F581110D
:1029B00037C0809180008F77809380000E94C81478
:1029C000A0918600B09187002C2F30E00E94122148
:1029D00023E030E040E050E00E94EA2089019A01C3
:1029E00080918600909187006CE070E00E94C22088
:1029F00060177107D8F0C80169E070E00E94C2203A
:102A00007093890060938800DF91CF911F910F919F
:102A1000FF90EF90BF90AF909F908F900895C3E08C
:102A200080918000806880938000CACF809186006A
:102A300090918700E0908600F0908700E0918600FA
:102A4000F0918700C6E0D0E0BE010E94C220060FD0
:102A5000171F211D311D4801590185E0880C991C63
:102A6000AA1CBB1C8A95D1F7C701BE010E94C220D7
:102A70009F0150E040E0260F371F411D511DC50149
:102A8000B4010E94EA2049015A01E0918600F091C8
:102A90008700CA01B9010E94B2209B01AC01DF018D
:102AA0000E9421219B01AC01C501B4010E94B2200A
:102AB0002FE096958795779567952A95D1F70091A0
:102AC00086001091870030E020E0061717072807DE
:102AD000390708F095CF609186007091870090CFFC
:102AE00008950E94C51482E88093800089E1809354
:102AF00081008FEF9FEF90938700809386000E9464
:102B0000C1130895CF93DF93EC01FB0182818823E9
:102B100009F433C1C430FDE5DF07C0F5CB3F9CE5C8
:102B2000D90730F49E0122503C4524313105B0F5DF
:102B30000E946B0C9093700280936F02C1318CE500
:102B4000D80709F4EEC008F069C0C930ECE5DE072B
:102B500009F4D5C0C8F5C5308CE5D80709F4C7C05D
:102B600000F5C330ECE5DE0709F4B9C008F0BBC0DE
:102B7000C230DC4509F4ADC080916F0290917002C3
:102B80000E94790C0E94680680E008C0C236EDE51C
:102B9000DE0771F2C63AFDE5DF0751F2DF91CF9112
:102BA000089580916F028062C7309CE5D90709F4CF
:102BB00093C080916F028061C830DC4508F48CC0FE
:102BC00080916F02806488C080916F028B7FCD30CE
:102BD000FCE5DF0709F480C098F480916F028E7FD6
:102BE000CB309CE5D90709F477C080916F028C60E7
:102BF000CC30DC4508F470C080916F028D7F6CC0D2
:102C000080916F028F7ECF30FCE5DF0709F464C04E
:102C100008F47BC080916F028F7D5EC0CE3F9CE543
:102C2000D90709F47AC050F5C531FCE5DF0709F48E
:102C300086C098F480916F02837FC3319CE5D907E9
:102C400009F44AC008F471C00E94680690916F02AE
:102C5000892F97FB87F980583FC0CC3FFCE5DF0701
:102C600009F449C008F055C0809170028160CB3FE3
:102C7000DC4509F081CF809370027ECFC230EDE554
:102C8000DE0709F468C0A8F4C1158DE5D80709F47A
:102C900052C0809170028360C130DD4560F3809145
:102CA0007002982F909591708E7F892B90FB81F9FF
:102CB000E2CFC236EDE5DE0709F451C0C63AFDE5C4
:102CC000DF0709F453C0C330DD4509F055CF80E07C
:102CD00043C080916F02816080936F024DCF8091DD
:102CE0006F028260F9CF80916F028460F5CF80918E
:102CF0006F028860F1CF809170028260BCCF0E9429
:102D0000680680916F028068E7CF80916F02877FAD
:102D1000E3CF809170028E7FAECF809170028D7F65
:102D2000AACF80916F028F7BD7CF0E9468068091D7
:102D30006F028F77D1CF809170028C7F9CCF809172
:102D40006F0282FB992790F921E0922790FB82F98C
:102D500090FB83F9C1CF81E00E94060D0DCF9091C9
:102D60006F02892F8F7E94FF8061B6CF90916F02A2
:102D7000892F8E7F90FF8160AFCF81E00FCFCF93FF
:102D8000DF93EB0186319C4511F50E94680B9A8117
:102D9000992399F08A7A91E009F490E090933E02A9
:102DA000811109C089E20E94400B0E94A90B80E0BA
:102DB000DF91CF91089585E3F6CF80913E02811196
:102DC00004C089E20E94480BF0CF85E3FBCF81E08D
:102DD000EFCF0F931F93CF93DF93C42FD22FFC011C
:102DE00082818823C9F0409341020E947B1990930D
:102DF000400280933F0280E28C0F883040F4C7701D
:102E000081E001C0880FCA95EAF70E94EF03DF91C5
:102E1000CF911F910F91089510914102141332C068
:102E200080913F02909140020E949319883C910545
:102E300048F5C0E2CD0F1D17B9F080E2810F883050
:102E400040F4177081E001C0880F1A95EAF70E94DC
:102E5000F603C83048F481E09D2F977001C0880FB9
:102E60009A95EAF70E94EF03802F0E94E603C8308C
:102E700070F6D77081E001C0880FDA95EAF70E94FA
:102E8000F603C5CF80E28C0F883008F6C77081E06A
:102E900001C0880FCA95EAF7F2CF0F939C01CB01CE
:102EA000243F4CE5340759F1A8F4293DFCE53F07E0
:102EB00001F12A3D4CE53407D1F1283D3C4591F420
:102EC00006E221EE41EE68ED7CE50E94E91680E025
:102ED0000F910895263FFCE53F07E9F0B0F0273F4A
:102EE0003C45F9F0FC018281882339F110924102BE
:102EF000EFCF07E225EE45EE69ED7CE5E6CF06E291
:102F000021EE40EE64EF7CE5E0CF07E225EE44EEF3
:102F100065EF7CE5DACF06E221EE42EE66EF7CE576
:102F2000D4CF07E225EE46EE67EF7CE5CECF08E290
:102F300021E045EE6AED7CE5C8CF81E0C9CF9093F2
:102F400085018093840108959093470280934602FF
:102F50000895E0914602F0914702309729F00190E0
:102F6000F081E02D0995089580E00895E0914602F2
:102F7000F0914702309799F020911601222359F0E1
:102F800020916F0227FF07C0DC012C9111962C9332
:102F9000119726E02C930280F381E02D0995089586
:102FA000E0914602F0914702309739F022E0DC01CF
:102FB0002C930480F581E02D099508952091440219
:102FC000309145022817390771F09093450280939C
:102FD0004402E0914602F0914702309721F00680CA
:102FE000F781E02D09950895209142023091430226
:102FF0002817390771F09093430280934202E091C1
:103000004602F0914702309721F00084F185E02DCF
:1030100009950895FC01329680911601882321F0CC
:1030200080916F029EE187FF96E080E0915008F466
:10303000089521912223D1F38F5FF8CF662301F108
:10304000209116012223F1F020916F0227FF1AC070
:10305000462F4695469546954E3190F4677021E08F
:1030600030E002C0220F331F6A95E2F7840F911DF2
:10307000FC01828190E02823392381E0232B69F42D
:1030800080E00895FC01329608962191261721F0E0
:10309000E817F907D1F7F4CF81E008959C01FC010E
:1030A00032969FEF80E04191461751F09F3F19F40F
:1030B000411101C0982F8F5F8630A9F79F3F09F417
:1030C0000895290F311D97FD3A95F90162830895FE
:1030D000FC01329608962191261303C0DF01119757
:1030E0001C92E817F907B9F70895E62FE695E695DB
:1030F000E695EE3168F4E80FF92FF11D677021E0D5
:1031000030E001C0220F6A95EAF78281822B828328
:103110000895E62FE695E695E695EE3170F4E80F12
:10312000F92FF11D677021E030E001C0220F6A9590
:10313000EAF72095828128232283089520911601A1
:10314000222339F020916F0227FF03C00E947518D7
:1031500008950E944E18089520911601222339F0F7
:1031600020916F0227FF03C00E94891808950E94D2
:1031700068180895FC01329680911601882351F059
:1031800080916F0287FF06C08EE1DF011D928A9554
:10319000E9F7089586E0F9CF46E050E00E94632108
:1031A00021E0892B09F420E0822F089508950E94E0
:1031B000D6180895811106C081E0809348020E94CC
:1031C000D718089582E0F9CF83E0809348020E94E7
:1031D000D71808950E94DA18089581E08093480274
:1031E0000E94D71808950E94ED1808950895089533
:1031F0000E94F7180895089508950E94F6180895FA
:10320000CF930E94FB180E94B7100E94FC18C0E0E8
:103210008C2F0E94FC0F811105C0CF5FC530C1F714
:10322000CF91089581E0FCCF85B7806885BF85B7D1
:10323000806885BF08951F921FB61F9211248F9337
:103240009F93AF93BF9380914902811113C08091E6
:103250007C0290917D02A0917E02B0917F02419606
:10326000A11DB11D80937C0290937D02A0937E02EC
:10327000B0937F02BF91AF919F918F911F901FBE1E
:103280001F90189580918402843031F10E9473025E
:103290001092490288E190E020E40FB6F894A895D6
:1032A000809360000FBE2093600083B7817F8460AD
:1032B00083BF83B7816083BF7894889583B78E7FFF
:1032C00083BF0FB6F894A8958091600088618093C1
:1032D0006000109260000FBE08950E9468060E9470
:1032E0007B02089582E084BD93E095BD9AEF97BD7F
:1032F00080936E0008952FB7F89480917C0290918E
:103300007D02A0917E02B0917F022FBF08952FB75A
:10331000F89460917C0270917D0280917E02909180
:103320007F022FBF08959C014FB7F89480917C02D3
:1033300090917D02A0917E02B0917F024FBF821BCF
:10334000930B089578941F921FB61F9211248F93A8
:103350009F93AF93BF9380917C0290917D02A09147
:103360007E02B0917F020196A11DB11D80937C0267
:1033700090937D02A0937E02B0937F02BF91AF91A4
:103380009F918F911F901FBE1F90189587E797E719
:10339000909301088093000888E19AE00FB6F894B2
:1033A000A895809360000FBE90936000FFCF88E1E6
:1033B0009AE00FB6F894A895809360000FBE9093A2
:1033C0006000FFCF80916D02089508959C0182E016
:1033D0008093E9009FEF8091E800915085FD06C041
:1033E00085ED8A95F1F700009111F5CF8091E80005
:1033F00085FF0CC050E040E066E070E0C9010E942B
:103400002B1C8091E8008E778093E8000895CF937D
:10341000DF93EC01809116018823B1F180916F0256
:1034200087FF32C060E282E08093E9008FEF9091E5
:10343000E800815095FD06C095ED9A95F1F70000E2
:103440008111F5CF8091E80085FF1BC080911601A6
:1034500070E050E040E0811104C050E040E068E0DE
:1034600070E0CE010E942B1C8091E8008E77809343
:10347000E80080E2FE01ADE4B2E001900D928A9591
:10348000E1F7DF91CF91089568E081E0CDCF80939F
:103490004A0270934C0260934B0280918402843004
:1034A00001F582E08093E9008FEF9091E800815070
:1034B00095FD06C095ED9A95F1F700008111F5CFC5
:1034C0008091E80085FF0DC050E040E063E070E0CF
:1034D0008AE492E00E942B1C8091E8008E77809312
:1034E000E8000895BC0184E00E94471A0895BC01D9
:1034F00083E00E94471A089580918302811109C0D8
:103500000E94BB1D0E94181E8091E200846080937F
:10351000E20008951092830208950E94ED18089524
:103520006091800281E0611101C080E00E94E41896
:1035300008959091840281E0943009F080E06091D8
:1035400080020E94EA18089542E061EC81E00E9446
:10355000371D42E261EC82E00E94371D90918402A7
:1035600081E0943009F080E0609180020E94DA18D6
:10357000089580918602833009F461C030F481306F
:10358000D1F1823009F49EC008958A3009F48AC0CE
:103590008B3009F46FC0893009F050C080918502EA
:1035A000813209F04BC08091890290918A02029782
:1035B00008F044C08091E800877F8093E800809104
:1035C000E80082FF37C09091F3008091F2000297EB
:1035D00031F48091F100813011F0863021F4809136
:1035E000F10080936D028091E8008B778093E80072
:1035F0000E946B1D23C080918502813AF9F480916D
:10360000E800877F8093E8008091890290918A0288
:10361000892B61F460E28DE492E070E00E947A1CF4
:103620008091E8008B778093E800089560E090E057
:1036300080E0F3CF809184028111C1CF0895809101
:103640008502813AD9F78091890290918A02892B6B
:10365000A9F78091E800877F8093E8008091E800D7
:1036600080FFFCCF809116018093F1008091E800EB
:103670008E77BCCF80918502813201F780918902DB
:1036800090918A02892BD1F68091E800877F809300
:10369000E8000E946B1D80918702809316010E94B2
:1036A0006806089580918502813241F68091E80094
:1036B000877F8093E8000E946B1D80918802809331
:1036C0006E02089580918502813A09F0B7CF80910A
:1036D000E800877F8093E8008091E80080FFFCCFBE
:1036E00080916E02C1CF84B7877F84BF0FB6F894F4
:1036F000A8958091600088618093600010926000BE
:103700000FBE80E890E00FB6F8948093610090932C
:1037100061000FBE0E94F31808950E94BB1D0E9415
:10372000181EE2EEF0E080818460808378940E942D
:10373000972008958AE091E00E94A417089580914F
:103740008402853031F480918402853019F00E9422
:103750006D1908950E94421980918202882399F37D
:103760000E940019882379F30E94151C0E946806A4
:10377000EACF08950E94BD1B0895292F33272330D7
:10378000310519F168F42130310509F444C02230C3
:10379000310509F445C090E080E030E020E025C02C
:1037A0002132310549F122323105A9F780E490E058
:1037B00027ED32E061157105C1F086EB90E021E262
:1037C00032E06130710589F0E6CF992781309105AB
:1037D00081F0009729F00297F1F6ECE9F1E002C0E0
:1037E000E0EDF1E0849190E09F01FA0131832083C4
:1037F0000895EEEAF1E0F6CF89E090E026EE31E0C0
:103800006115710591F389E090E02FEF31E06130AF
:10381000710559F3C0CF82E190E02FE032E0E5CFAF
:103820008BE390E024ED31E0E0CF80E189BD82E1DF
:1038300089BD09B400FEFDCF8091D8008F7D8093B3
:10384000D8008091E00082608093E0008091E000E9
:1038500081FDFCCF0895AF92BF92CF92DF92FF928D
:103860000F931F93CF93DF936C01EB018A010E94AA
:103870008A1DF82E811123C00115110539F0F801B8
:1038800080819181C81BD90BC80ED91EB12CA12CE7
:103890002097A9F08091E80085FD22C08091E80082
:1038A0008E778093E80001151105A1F0F801808161
:1038B0009181A80EB91EB182A08285E0F82E8F2DCD
:1038C000DF91CF911F910F91FF90DF90CF90BF902C
:1038D000AF9008950E948A1D8823D1F2F82EEFCF71
:1038E000F60181916F018093F1002197FFEFAF1AEC
:1038F000BF0ACECFFC0180918B0290918C0286177B
:103900009707A0F06115710529F49091E8009E7762
:103910009093E80090E06115710551F4911108C091
:103920008091E80082FF34C080E00895BC01F2CFAE
:10393000809184028823C1F18530C1F18091E80033
:1039400083FD30C08091E80082FDEACF8091E800DD
:1039500080FFE1CF8091F3002091F200382F6115B4
:10396000710519F02830310558F091E02830310503
:1039700009F090E02091E8002E772093E800CBCF6B
:1039800081918093F100615071092F5F3F4FE7CF24
:1039900080918402882341F0853041F08091E800D5
:1039A00083FFBECF81E0089582E0089583E008950B
:1039B000FC0180918B0290918C0286179707A0F0F2
:1039C0006115710529F48091E8008E778093E800F5
:1039D00090E06115710551F4911108C08091E800E3
:1039E00082FF35C080E00895BC01F2CF809184024F
:1039F0008823C9F18530C9F18091E80083FD31C089
:103A00008091E80082FDEACF8091E80080FFE1CF5D
:103A10008091F3002091F200382F6115710519F0A3
:103A20002830310558F091E02830310509F090E058
:103A30008091E8008E778093E800CBCF84918093CB
:103A4000F1003196615071092F5F3F4FE6CF8091B1
:103A50008402882341F0853041F08091E80083FFA3
:103A6000BDCF81E0089582E0089583E00895982F06
:103A7000973028F08F708093E90081E0089590934B
:103A8000E900242F762F50E0981731F07091EC0068
:103A90002091ED005091F00021FD02C09F5FE8CF22
:103AA0003091EB003E7F3093EB003091ED003D7F95
:103AB0003093ED003091EB0031603093EB00709368
:103AC000EC002093ED005093F0002091EE0027FDD4
:103AD000E5CF80E008958091850287FF13C0809133
:103AE000E80082FF06C08091E8008B778093E800B1
:103AF00004C0809184028111F2CF089580918402E4
:103B00008823D9F38091E80080FFF8CF8091E80006
:103B10008E77ECCF2091E4003091E50095E6A90185
:103B20002091EC00822F817020FF06C08091E80078
:103B300080FF06C080E008952091E80022FD1AC0B1
:103B400080918402882389F0853089F08091EB0090
:103B500085FD0FC02091E4003091E5004217530726
:103B6000F9F29150E1F684E0089582E0089583E04F
:103B7000089581E008950E942A1E0E94321EE0EE00
:103B8000F0E0808181608083E8EDF0E080818F77D4
:103B9000808319BCA7EDB0E08C918E7F8C938081DF
:103BA0008F7E80831092830208950F931F93CF938B
:103BB000DF930E942A1E0E94321EC8EDD0E0888149
:103BC0008F77888388818068888388818F7D8883C8
:103BD00019BC1092840210928002109282021092FC
:103BE000810200EE10E0F80180818B7F8083888164
:103BF0008160888342E060E080E00E94371DE1EE52
:103C0000F0E080818E7F8083E2EEF0E08081816051
:103C10008083808188608083F80180818E7F8083AB
:103C2000888180618883DF91CF911F910F910895E2
:103C3000E8EDF0E080818F7E8083E7EDF0E0808129
:103C40008160808384E082BF81E0809383020E9450
:103C5000D51D0895E8EDF0E080818E7F808310927D
:103C6000E20008951092DA001092E10008951F9288
:103C70000F920FB60F9211242F933F934F935F93A0
:103C80006F937F938F939F93AF93BF93EF93FF9324
:103C90008091E10082FF0BC08091E20082FF07C0AB
:103CA0008091E1008B7F8093E1000E9496208091BB
:103CB000DA0080FF19C08091D80080FF15C0809184
:103CC000DA008E7F8093DA008091D90080FF96C061
:103CD00080E189BD82E189BD09B400FEFDCF81E0AC
:103CE000809384020E947C1A8091E10080FF19C0B9
:103CF0008091E20080FF15C08091E2008E7F80936A
:103D0000E2008091E20080618093E2008091D8001F
:103D100080628093D80019BC85E0809384020E9461
:103D2000901A8091E10084FF2BC08091E20084FF13
:103D300027C080E189BD82E189BD89B5982F917046
:103D400080FFFBCF8091D8008F7D8093D800809139
:103D5000E1008F7E8093E1008091E2008F7E80936E
:103D6000E2008091E20081608093E2008091800215
:103D7000882309F449C084E0809384020E94991A40
:103D80008091E10083FF29C08091E20083FF25C07C
:103D90008091E100877F8093E10082E0809384023C
:103DA000109280028091E1008E7F8093E1008091EB
:103DB000E2008E7F8093E2008091E2008061809338
:103DC000E20042E060E080E00E94371D8091F00058
:103DD00088608093F0000E948D1AFF91EF91BF914F
:103DE000AF919F918F917F916F915F914F913F9193
:103DF0002F910F900FBE0F901F90189519BC109225
:103E000084020E948A1A70CF8091E30087FD93E0BC
:103E100090938402B3CF1F920F920FB60F9211248A
:103E20002F933F934F935F936F937F938F939F93C2
:103E3000AF93BF93CF93DF93EF93FF93D091E900BC
:103E4000DF708091EC00C82FC17080FDC0E8109237
:103E5000E9008091F000877F8093F00078940E94C1
:103E60004F1F1092E9008091F00088608093F0006D
:103E7000CD2BCF70C093E900FF91EF91DF91CF91EF
:103E8000BF91AF919F918F917F916F915F914F9172
:103E90003F912F910F900FBE0F901F901895AAE29F
:103EA000B0E0E5E5FFE10C943B2185E892E020914C
:103EB000F100FC012193CF01F2E08D389F07B9F7A3
:103EC0000E94B91A8091E80083FF1EC1809185028B
:103ED000909186029A3008F017C1E92FF0E0E05483
:103EE000FE4D0C940C21803899F0823809F00CC1F9
:103EF000809189028F70873008F006C18093E900B5
:103F00008091EB0085FB882780F91092E90006C0BC
:103F10008091810290918202911182609091E800DB
:103F2000977F9093E8008093F1001092F1008091C8
:103F3000E8008E77E5C0882309F4D3C0823009F009
:103F4000E3C0809187028111D6C0809189028F7071
:103F50002FEF280F263008F0D7C08093E90020917A
:103F6000EB0020FFC8C0933031F48091EB008062F9
:103F70008093EB00C0C09091EB0090619093EB00B8
:103F800021E030E001C0220F8A95EAF72093EA0091
:103F90001092EA008091EB008860EACF8111B4C0F2
:103FA000109187021F778091E3008078812B8093A6
:103FB000E3008091E800877F8093E8000E946B1DFA
:103FC0008091E80080FFFCCF8091E30080688093BF
:103FD000E30082E0111183E08093840295C0805851
:103FE000823008F091C080918702909188028C3DC8
:103FF00023E09207A1F583E08A838AE289834FB7A1
:10400000F894DE01139620E03EE051E2E32FF0E069
:1040100050935700E49120FF03C0E295EF703F5F9B
:10402000EF708E2F90E0EA30C0F0C7968D939D938D
:104030002F5F243159F74FBF8091E800877F80932D
:10404000E8006AE270E0CE0101960E947A1C80913D
:10405000E8008B778093E80057C0C096E7CF609167
:10406000890270918A02AE014F5F5F4F0E94BA1BB6
:10407000BC01892B09F448C09091E800977F909388
:10408000E80089819A810E94D81CE1CF8038E1F54F
:104090008091E800877F8093E80080918002809380
:1040A000F10045CF811130C090918702923060F5C8
:1040B0008091E800877F8093E800909380020E94BF
:1040C0006B1D80918002882311F084E005C08091EF
:1040D000E30087FDFACF81E0809384020E94A41A56
:1040E00013C080918702813079F481E0933009F028
:1040F00080E0809382021092E9008091E800877F3F
:104100008093E8000E946B1D8091E80083FF0AC045
:104110008091E800877F8093E8008091EB008062C7
:104120008093EB00AA96E3E00C9457210895CF9377
:10413000809184028823A1F0C091E900CF70909112
:10414000EC00892F817090FD80E8C82B1092E90067
:104150008091E80083FD0E944F1FCF70C093E9005B
:10416000CF910895DB018F939F930E942121BF91EE
:10417000AF91A29F800D911DA39F900DB29F900DB6
:1041800011240895AA1BBB1B51E107C0AA1FBB1F26
:10419000A617B70710F0A61BB70B881F991F5A95D3
:1041A000A9F780959095BC01CD01089597FB072E46
:1041B00016F4009407D077FD09D00E94C22007FCB6
:1041C00005D03EF4909581959F4F08957095619527
:1041D0007F4F0895A1E21A2EAA1BBB1BFD010DC043
:1041E000AA1FBB1FEE1FFF1FA217B307E407F507A7
:1041F00020F0A21BB30BE40BF50B661F771F881F83
:10420000991F1A9469F760957095809590959B0118
:10421000AC01BD01CF010895EE0FFF1F0590F49191
:10422000E02D0994A29FB001B39FC001A39F700D20
:10423000811D1124911DB29F700D811D1124911DAE
:1042400008950E941221A59F900DB49F900DA49FE8
:10425000800D911D112408952F923F924F925F92ED
:104260006F927F928F929F92AF92BF92CF92DF9286
:10427000EF92FF920F931F93CF93DF93CDB7DEB7EB
:10428000CA1BDB0B0FB6F894DEBF0FBECDBF09947F
:104290002A88398848885F846E847D848C849B84D6
:1042A000AA84B984C884DF80EE80FD800C811B81E4
:1042B000AA81B981CE0FD11D0FB6F894DEBF0FBE13
:1042C000CDBFED010895FB01DC0104C08D9101908B
:1042D000801921F441505040C8F7881B990B08956C
:1042E000F999FECF92BD81BDF89A992780B50895BE
:1042F000A8E1B0E042E050E00C94A421262FF99907
:10430000FECF92BD81BDF89A019700B4021639F034
:104310001FBA20BD0FB6F894FA9AF99A0FBE089505
:104320000396272F0E947F210E947E21252F0E9425
:104330007F21242F0C947F210196272F0E947F211B
:104340000C947E21DC01CB01FC01F999FECF06C063
:10435000F2BDE1BDF89A319600B40D924150504043
:10436000B8F70895F894FFCF380438046904690455
:10437000F6041205980498041D05A905B805B805AA
:10438000731F9B1F84209B1F8420CE1FEF1F842040
:044390004620522051
:10439400FE01280850011E0A1401E219071AE61941
:1043A400771A721AE51901E200E900EA00B500B6CD
:1043B40000B700CD008301CC008A01920194012151
:1043C40002230224022502260227022A02B300B491
:1043D400006F007000818283E200E900EA00B5000A
:1043E400B600B700CD008301CC008A01920194018C
:1043F4002102230224022502260227022A02B300F4
:10440400B4006F00700081828334C697669490F77D
:0444140031333236D8
:00000001FF
